{
	"data": {
		"bytecode": {
			"linkReferences": {},
			"object": "608060405260025f556007600155348015610018575f80fd5b50610200806100265f395ff3fe608060405234801561000f575f80fd5b506004361061003f575f3560e01c806315d4266c146100435780633b9eac4b146100615780638be988cd1461007f575b5f80fd5b61004b61009e565b60405161005891906100e9565b60405180910390f35b6100696100a4565b60405161007691906100e9565b60405180910390f35b6100876100a9565b604051610095929190610102565b60405180910390f35b60015481565b5f5481565b5f806001545f546100ba9190610156565b91506001545f546100cb9190610197565b90509091565b5f819050919050565b6100e3816100d1565b82525050565b5f6020820190506100fc5f8301846100da565b92915050565b5f6040820190506101155f8301856100da565b61012260208301846100da565b9392505050565b7f4e487b71000000000000000000000000000000000000000000000000000000005f52601160045260245ffd5b5f610160826100d1565b915061016b836100d1565b9250828202610179816100d1565b915082820484148315176101905761018f610129565b5b5092915050565b5f6101a1826100d1565b91506101ac836100d1565b92508282019050808211156101c4576101c3610129565b5b9291505056fea26469706673582212205c9d3c6d76c02330005e71dcba424240f5bda2bc61010e10f7f5aeb77214085c64736f6c63430008180033",
			"opcodes": "PUSH1 0x80 PUSH1 0x40 MSTORE PUSH1 0x2 PUSH0 SSTORE PUSH1 0x7 PUSH1 0x1 SSTORE CALLVALUE DUP1 ISZERO PUSH2 0x18 JUMPI PUSH0 DUP1 REVERT JUMPDEST POP PUSH2 0x200 DUP1 PUSH2 0x26 PUSH0 CODECOPY PUSH0 RETURN INVALID PUSH1 0x80 PUSH1 0x40 MSTORE CALLVALUE DUP1 ISZERO PUSH2 0xF JUMPI PUSH0 DUP1 REVERT JUMPDEST POP PUSH1 0x4 CALLDATASIZE LT PUSH2 0x3F JUMPI PUSH0 CALLDATALOAD PUSH1 0xE0 SHR DUP1 PUSH4 0x15D4266C EQ PUSH2 0x43 JUMPI DUP1 PUSH4 0x3B9EAC4B EQ PUSH2 0x61 JUMPI DUP1 PUSH4 0x8BE988CD EQ PUSH2 0x7F JUMPI JUMPDEST PUSH0 DUP1 REVERT JUMPDEST PUSH2 0x4B PUSH2 0x9E JUMP JUMPDEST PUSH1 0x40 MLOAD PUSH2 0x58 SWAP2 SWAP1 PUSH2 0xE9 JUMP JUMPDEST PUSH1 0x40 MLOAD DUP1 SWAP2 SUB SWAP1 RETURN JUMPDEST PUSH2 0x69 PUSH2 0xA4 JUMP JUMPDEST PUSH1 0x40 MLOAD PUSH2 0x76 SWAP2 SWAP1 PUSH2 0xE9 JUMP JUMPDEST PUSH1 0x40 MLOAD DUP1 SWAP2 SUB SWAP1 RETURN JUMPDEST PUSH2 0x87 PUSH2 0xA9 JUMP JUMPDEST PUSH1 0x40 MLOAD PUSH2 0x95 SWAP3 SWAP2 SWAP1 PUSH2 0x102 JUMP JUMPDEST PUSH1 0x40 MLOAD DUP1 SWAP2 SUB SWAP1 RETURN JUMPDEST PUSH1 0x1 SLOAD DUP2 JUMP JUMPDEST PUSH0 SLOAD DUP2 JUMP JUMPDEST PUSH0 DUP1 PUSH1 0x1 SLOAD PUSH0 SLOAD PUSH2 0xBA SWAP2 SWAP1 PUSH2 0x156 JUMP JUMPDEST SWAP2 POP PUSH1 0x1 SLOAD PUSH0 SLOAD PUSH2 0xCB SWAP2 SWAP1 PUSH2 0x197 JUMP JUMPDEST SWAP1 POP SWAP1 SWAP2 JUMP JUMPDEST PUSH0 DUP2 SWAP1 POP SWAP2 SWAP1 POP JUMP JUMPDEST PUSH2 0xE3 DUP2 PUSH2 0xD1 JUMP JUMPDEST DUP3 MSTORE POP POP JUMP JUMPDEST PUSH0 PUSH1 0x20 DUP3 ADD SWAP1 POP PUSH2 0xFC PUSH0 DUP4 ADD DUP5 PUSH2 0xDA JUMP JUMPDEST SWAP3 SWAP2 POP POP JUMP JUMPDEST PUSH0 PUSH1 0x40 DUP3 ADD SWAP1 POP PUSH2 0x115 PUSH0 DUP4 ADD DUP6 PUSH2 0xDA JUMP JUMPDEST PUSH2 0x122 PUSH1 0x20 DUP4 ADD DUP5 PUSH2 0xDA JUMP JUMPDEST SWAP4 SWAP3 POP POP POP JUMP JUMPDEST PUSH32 0x4E487B7100000000000000000000000000000000000000000000000000000000 PUSH0 MSTORE PUSH1 0x11 PUSH1 0x4 MSTORE PUSH1 0x24 PUSH0 REVERT JUMPDEST PUSH0 PUSH2 0x160 DUP3 PUSH2 0xD1 JUMP JUMPDEST SWAP2 POP PUSH2 0x16B DUP4 PUSH2 0xD1 JUMP JUMPDEST SWAP3 POP DUP3 DUP3 MUL PUSH2 0x179 DUP2 PUSH2 0xD1 JUMP JUMPDEST SWAP2 POP DUP3 DUP3 DIV DUP5 EQ DUP4 ISZERO OR PUSH2 0x190 JUMPI PUSH2 0x18F PUSH2 0x129 JUMP JUMPDEST JUMPDEST POP SWAP3 SWAP2 POP POP JUMP JUMPDEST PUSH0 PUSH2 0x1A1 DUP3 PUSH2 0xD1 JUMP JUMPDEST SWAP2 POP PUSH2 0x1AC DUP4 PUSH2 0xD1 JUMP JUMPDEST SWAP3 POP DUP3 DUP3 ADD SWAP1 POP DUP1 DUP3 GT ISZERO PUSH2 0x1C4 JUMPI PUSH2 0x1C3 PUSH2 0x129 JUMP JUMPDEST JUMPDEST SWAP3 SWAP2 POP POP JUMP INVALID LOG2 PUSH5 0x6970667358 0x22 SLT KECCAK256 TLOAD SWAP14 EXTCODECOPY PUSH14 0x76C02330005E71DCBA424240F5BD LOG2 0xBC PUSH2 0x10E LT 0xF7 CREATE2 0xAE 0xB7 PUSH19 0x14085C64736F6C634300081800330000000000 "
		},
		"gasEstimates": {
			"creation": {
				"codeDepositCost": "102400",
				"executionCost": "44356",
				"totalCost": "146756"
			},
			"external": {
				"getResult1()": "infinite",
				"num1()": "2424",
				"num2()": "2403"
			}
		},
		"methodIdentifiers": {
			"getResult1()": "8be988cd",
			"num1()": "3b9eac4b",
			"num2()": "15d4266c"
		}
	},
	"abi": [
		{
			"inputs": [],
			"name": "getResult1",
			"outputs": [
				{
					"internalType": "uint256",
					"name": "product",
					"type": "uint256"
				},
				{
					"internalType": "uint256",
					"name": "total",
					"type": "uint256"
				}
			],
			"stateMutability": "view",
			"type": "function"
		},
		{
			"inputs": [],
			"name": "num1",
			"outputs": [
				{
					"internalType": "uint256",
					"name": "",
					"type": "uint256"
				}
			],
			"stateMutability": "view",
			"type": "function"
		},
		{
			"inputs": [],
			"name": "num2",
			"outputs": [
				{
					"internalType": "uint256",
					"name": "",
					"type": "uint256"
				}
			],
			"stateMutability": "view",
			"type": "function"
		}
	]
}